{
  "contractName": "Bribes",
  "abi": [
    {
      "constant": true,
      "inputs": [],
      "name": "bribesTotalPaid",
      "outputs": [
        {
          "name": "",
          "type": "uint256"
        }
      ],
      "payable": false,
      "stateMutability": "view",
      "type": "function",
      "signature": "0x163012da"
    },
    {
      "constant": false,
      "inputs": [],
      "name": "unpause",
      "outputs": [
        {
          "name": "result",
          "type": "bool"
        }
      ],
      "payable": false,
      "stateMutability": "nonpayable",
      "type": "function",
      "signature": "0x3f4ba83a"
    },
    {
      "constant": true,
      "inputs": [],
      "name": "paused",
      "outputs": [
        {
          "name": "",
          "type": "bool"
        }
      ],
      "payable": false,
      "stateMutability": "view",
      "type": "function",
      "signature": "0x5c975abb"
    },
    {
      "constant": false,
      "inputs": [],
      "name": "pause",
      "outputs": [
        {
          "name": "result",
          "type": "bool"
        }
      ],
      "payable": false,
      "stateMutability": "nonpayable",
      "type": "function",
      "signature": "0x8456cb59"
    },
    {
      "constant": true,
      "inputs": [],
      "name": "owner",
      "outputs": [
        {
          "name": "",
          "type": "address"
        }
      ],
      "payable": false,
      "stateMutability": "view",
      "type": "function",
      "signature": "0x8da5cb5b"
    },
    {
      "constant": true,
      "inputs": [
        {
          "name": "",
          "type": "uint256"
        }
      ],
      "name": "bribes",
      "outputs": [
        {
          "name": "",
          "type": "string"
        }
      ],
      "payable": false,
      "stateMutability": "view",
      "type": "function",
      "signature": "0xa9d46e5b"
    },
    {
      "constant": false,
      "inputs": [
        {
          "name": "newOwner",
          "type": "address"
        }
      ],
      "name": "transferOwnership",
      "outputs": [],
      "payable": false,
      "stateMutability": "nonpayable",
      "type": "function",
      "signature": "0xf2fde38b"
    },
    {
      "payable": false,
      "stateMutability": "nonpayable",
      "type": "fallback"
    },
    {
      "anonymous": false,
      "inputs": [
        {
          "indexed": false,
          "name": "bribeIndex",
          "type": "uint256"
        },
        {
          "indexed": false,
          "name": "ipfsHash",
          "type": "string"
        }
      ],
      "name": "LogBribeReported",
      "type": "event",
      "signature": "0x0b6284d2f3124be5961c915de1d925ed0e88aad604833180e66ead7583cd4f07"
    },
    {
      "anonymous": false,
      "inputs": [],
      "name": "Pause",
      "type": "event",
      "signature": "0x6985a02210a168e66602d3235cb6db0e70f92b3ba4d376a33c0f3d9434bff625"
    },
    {
      "anonymous": false,
      "inputs": [],
      "name": "Unpause",
      "type": "event",
      "signature": "0x7805862f689e2f13df9f062ff482ad3ad112aca9e0847911ed832e158c525b33"
    },
    {
      "constant": false,
      "inputs": [
        {
          "name": "ipfsHash",
          "type": "string"
        },
        {
          "name": "amount",
          "type": "uint256"
        }
      ],
      "name": "reportBribe",
      "outputs": [],
      "payable": false,
      "stateMutability": "nonpayable",
      "type": "function",
      "signature": "0xd8d4f44d"
    },
    {
      "constant": true,
      "inputs": [
        {
          "name": "bribeId",
          "type": "uint32"
        }
      ],
      "name": "bribeDetails",
      "outputs": [
        {
          "name": "ipfsHash",
          "type": "string"
        }
      ],
      "payable": false,
      "stateMutability": "view",
      "type": "function",
      "signature": "0x355acb9a"
    },
    {
      "constant": true,
      "inputs": [],
      "name": "numberOfBribes",
      "outputs": [
        {
          "name": "number",
          "type": "uint256"
        }
      ],
      "payable": false,
      "stateMutability": "view",
      "type": "function",
      "signature": "0x755bdee7"
    }
  ],
  "bytecode": "0x608060405260008060146101000a81548160ff021916908315150217905550336000806101000a81548173ffffffffffffffffffffffffffffffffffffffff021916908373ffffffffffffffffffffffffffffffffffffffff160217905550610aab8061006d6000396000f3fe6080604052600436106100a4576000357c0100000000000000000000000000000000000000000000000000000000900463ffffffff168063163012da146100b6578063355acb9a146100e15780633f4ba83a1461019b5780635c975abb146101ca578063755bdee7146101f95780638456cb59146102245780638da5cb5b14610253578063a9d46e5b146102aa578063d8d4f44d1461035e578063f2fde38b14610430575b3480156100b057600080fd5b50600080fd5b3480156100c257600080fd5b506100cb610481565b6040518082815260200191505060405180910390f35b3480156100ed57600080fd5b506101206004803603602081101561010457600080fd5b81019080803563ffffffff169060200190929190505050610487565b6040518080602001828103825283818151815260200191508051906020019080838360005b83811015610160578082015181840152602081019050610145565b50505050905090810190601f16801561018d5780820380516001836020036101000a031916815260200191505b509250505060405180910390f35b3480156101a757600080fd5b506101b0610561565b604051808215151515815260200191505060405180910390f35b3480156101d657600080fd5b506101df610626565b604051808215151515815260200191505060405180910390f35b34801561020557600080fd5b5061020e610639565b6040518082815260200191505060405180910390f35b34801561023057600080fd5b50610239610646565b604051808215151515815260200191505060405180910390f35b34801561025f57600080fd5b5061026861070d565b604051808273ffffffffffffffffffffffffffffffffffffffff1673ffffffffffffffffffffffffffffffffffffffff16815260200191505060405180910390f35b3480156102b657600080fd5b506102e3600480360360208110156102cd57600080fd5b8101908080359060200190929190505050610732565b6040518080602001828103825283818151815260200191508051906020019080838360005b83811015610323578082015181840152602081019050610308565b50505050905090810190601f1680156103505780820380516001836020036101000a031916815260200191505b509250505060405180910390f35b34801561036a57600080fd5b5061042e6004803603604081101561038157600080fd5b810190808035906020019064010000000081111561039e57600080fd5b8201836020820111156103b057600080fd5b803590602001918460018302840111640100000000831117156103d257600080fd5b91908080601f016020809104026020016040519081016040528093929190818152602001838380828437600081840152601f19601f820116905080830192505050505050509192919290803590602001909291905050506107ed565b005b34801561043c57600080fd5b5061047f6004803603602081101561045357600080fd5b81019080803573ffffffffffffffffffffffffffffffffffffffff169060200190929190505050610905565b005b60025481565b60606001805490508263ffffffff161015156104a257600080fd5b60018263ffffffff168154811015156104b757fe5b906000526020600020018054600181600116156101000203166002900480601f0160208091040260200160405190810160405280929190818152602001828054600181600116156101000203166002900480156105555780601f1061052a57610100808354040283529160200191610555565b820191906000526020600020905b81548152906001019060200180831161053857829003601f168201915b50505050509050919050565b60008060009054906101000a900473ffffffffffffffffffffffffffffffffffffffff1673ffffffffffffffffffffffffffffffffffffffff163373ffffffffffffffffffffffffffffffffffffffff161415156105be57600080fd5b600060149054906101000a900460ff1615156105d957600080fd5b60008060146101000a81548160ff0219169083151502179055507f7805862f689e2f13df9f062ff482ad3ad112aca9e0847911ed832e158c525b3360405160405180910390a16001905090565b600060149054906101000a900460ff1681565b6000600180549050905090565b60008060009054906101000a900473ffffffffffffffffffffffffffffffffffffffff1673ffffffffffffffffffffffffffffffffffffffff163373ffffffffffffffffffffffffffffffffffffffff161415156106a357600080fd5b600060149054906101000a900460ff161515156106bf57600080fd5b6001600060146101000a81548160ff0219169083151502179055507f6985a02210a168e66602d3235cb6db0e70f92b3ba4d376a33c0f3d9434bff62560405160405180910390a16001905090565b6000809054906101000a900473ffffffffffffffffffffffffffffffffffffffff1681565b60018181548110151561074157fe5b906000526020600020016000915090508054600181600116156101000203166002900480601f0160208091040260200160405190810160405280929190818152602001828054600181600116156101000203166002900480156107e55780601f106107ba576101008083540402835291602001916107e5565b820191906000526020600020905b8154815290600101906020018083116107c857829003601f168201915b505050505081565b6000811115156107fc57600080fd5b6000825111151561080c57600080fd5b60018290806001815401808255809150509060018203906000526020600020016000909192909190915090805190602001906108499291906109da565b505080600254016002819055507f0b6284d2f3124be5961c915de1d925ed0e88aad604833180e66ead7583cd4f076001808054905003836040518083815260200180602001828103825283818151815260200191508051906020019080838360005b838110156108c65780820151818401526020810190506108ab565b50505050905090810190601f1680156108f35780820380516001836020036101000a031916815260200191505b50935050505060405180910390a15050565b6000809054906101000a900473ffffffffffffffffffffffffffffffffffffffff1673ffffffffffffffffffffffffffffffffffffffff163373ffffffffffffffffffffffffffffffffffffffff1614151561096057600080fd5b600073ffffffffffffffffffffffffffffffffffffffff168173ffffffffffffffffffffffffffffffffffffffff161415156109d757806000806101000a81548173ffffffffffffffffffffffffffffffffffffffff021916908373ffffffffffffffffffffffffffffffffffffffff1602179055505b50565b828054600181600116156101000203166002900490600052602060002090601f016020900481019282601f10610a1b57805160ff1916838001178555610a49565b82800160010185558215610a49579182015b82811115610a48578251825591602001919060010190610a2d565b5b509050610a569190610a5a565b5090565b610a7c91905b80821115610a78576000816000905550600101610a60565b5090565b9056fea165627a7a723058204dc3c7121ea7c58ba4e1f3b7192ccf9caf4df90f57b6c13e081ec32f9364e5ff0029",
  "source": "pragma solidity ^0.5.0;\n\n/** @title Ownable. */\ncontract Ownable {\n    address public owner;\n\n    constructor() public {\n        owner = msg.sender;\n    }\n\n    modifier onlyOwner() {\n        require(msg.sender == owner);\n        _;\n    }\n\n    /** @dev Transfer ownership to a different owner.\n      * @param newOwner address of the new owner.\n      */\n    function transferOwnership(address newOwner) public onlyOwner {\n        if (newOwner != address(0)) {\n            owner = newOwner;\n        }\n    }\n}\n\n/** @title Pausable. */\ncontract Pausable is Ownable {\n    event Pause();\n    event Unpause();\n\n    bool public paused = false;\n\n    modifier whenNotPaused() {\n        require(!paused);\n        _;\n    }\n\n    modifier whenPaused {\n        require(paused);\n        _;\n    }\n\n    /** @dev Pauses the contract should that ever be needed.\n      * @return result true or false\n      */\n    function pause() public onlyOwner whenNotPaused returns (bool result) {\n        paused = true;\n        emit Pause();\n        return true;\n    }\n\n    /** @dev Unpauses a previously paused contract.\n      * @return result true or false\n      */\n    function unpause() public onlyOwner whenPaused returns (bool result) {\n        paused = false;\n        emit Unpause();\n        return true;\n    }\n}\n\n/** @title Bribes. */\ncontract Bribes is Pausable {\n\n    /** @dev Event fired when a bribe reported to this contract is successfully stored\n     */\n    event LogBribeReported(uint256 bribeIndex, string ipfsHash);\n\n    /*\n     * Public store of bribes reported to this contract. Using string as data structure\n     * because ipfs hashes don't have a fixed length and are subject to change.\n     */\n    string[] public bribes;\n\n    // A running count of the total amount of bribes paid.\n    uint256 public bribesTotalPaid;\n\n    /** @dev Stores the reported bribe to the contract.\n      * @param ipfsHash Hash of the Ipfs file where details of the bribe are stored.\n      * @param amount Amount given as a bribe.\n      */\n    function reportBribe(string memory ipfsHash, uint256 amount) public {\n        // Ensure that the reward amount is greater than 0\n        require(amount > 0);\n        require(bytes(ipfsHash).length > 0);\n\n        bribes.push(ipfsHash);\n        bribesTotalPaid = bribesTotalPaid + amount;\n        emit LogBribeReported(bribes.length - 1, ipfsHash);\n    }\n\n    /** @dev Gets the ipfsHash for a given bribe\n      * @param bribeId Id of the bribe for which the ipfs hash is being requested\n      * @return ipfsHash ipfsHash for the requested bribe\n      */\n    function bribeDetails(uint32 bribeId) public view returns (string memory ipfsHash) {\n        // Ensure that it's a valid bribe\n        require(bribeId < bribes.length);\n\n        return bribes[bribeId];\n    }\n\n    /** @dev Returns the number of bribes reported to this contract\n      * @return number number of bribes known to this contract\n      */\n    function numberOfBribes() public view returns (uint256 number) {\n        return bribes.length;\n    }\n\n    /** @dev Fallback function - Called if other functions don't match call or\n      *      sent ether without data. Typically, called when invalid data is sent\n      *      Added so ether sent to this contract is reverted if the contract fails\n      *      otherwise, the sender's money is transferred to contract\n      */\n    function() external {\n        revert();\n    }\n}\n",
  "sourcePath": "/Users/krishna/Work/travel-itinerary-bounty-dapp/contracts/Bribes.sol",
  "compiler": {
    "name": "solc",
    "version": "0.5.0+commit.1d4f565a.Emscripten.clang"
  },
  "schemaVersion": "3.0.0",
  "updatedAt": "2019-01-26T04:38:28.419Z",
  "devdoc": {
    "methods": {
      "bribeDetails(uint32)": {
        "details": "Gets the ipfsHash for a given bribe",
        "params": {
          "bribeId": "Id of the bribe for which the ipfs hash is being requested"
        },
        "return": "ipfsHash ipfsHash for the requested bribe"
      },
      "numberOfBribes()": {
        "details": "Returns the number of bribes reported to this contract",
        "return": "number number of bribes known to this contract"
      },
      "pause()": {
        "details": "Pauses the contract should that ever be needed.",
        "return": "result true or false"
      },
      "reportBribe(string,uint256)": {
        "details": "Stores the reported bribe to the contract.",
        "params": {
          "amount": "Amount given as a bribe.",
          "ipfsHash": "Hash of the Ipfs file where details of the bribe are stored."
        }
      },
      "transferOwnership(address)": {
        "details": "Transfer ownership to a different owner.",
        "params": {
          "newOwner": "address of the new owner."
        }
      },
      "unpause()": {
        "details": "Unpauses a previously paused contract.",
        "return": "result true or false"
      }
    },
    "title": "Bribes. "
  },
  "userdoc": {
    "methods": {}
  }
}