{
  "contractName": "Pausable",
  "abi": [
    {
      "constant": true,
      "inputs": [],
      "name": "paused",
      "outputs": [
        {
          "name": "",
          "type": "bool"
        }
      ],
      "payable": false,
      "stateMutability": "view",
      "type": "function"
    },
    {
      "constant": true,
      "inputs": [],
      "name": "owner",
      "outputs": [
        {
          "name": "",
          "type": "address"
        }
      ],
      "payable": false,
      "stateMutability": "view",
      "type": "function"
    },
    {
      "constant": false,
      "inputs": [
        {
          "name": "newOwner",
          "type": "address"
        }
      ],
      "name": "transferOwnership",
      "outputs": [],
      "payable": false,
      "stateMutability": "nonpayable",
      "type": "function"
    },
    {
      "anonymous": false,
      "inputs": [],
      "name": "Pause",
      "type": "event"
    },
    {
      "anonymous": false,
      "inputs": [],
      "name": "Unpause",
      "type": "event"
    },
    {
      "constant": false,
      "inputs": [],
      "name": "pause",
      "outputs": [
        {
          "name": "result",
          "type": "bool"
        }
      ],
      "payable": false,
      "stateMutability": "nonpayable",
      "type": "function"
    },
    {
      "constant": false,
      "inputs": [],
      "name": "unpause",
      "outputs": [
        {
          "name": "result",
          "type": "bool"
        }
      ],
      "payable": false,
      "stateMutability": "nonpayable",
      "type": "function"
    }
  ],
  "bytecode": "0x608060405260008060146101000a81548160ff021916908315150217905550336000806101000a81548173ffffffffffffffffffffffffffffffffffffffff021916908373ffffffffffffffffffffffffffffffffffffffff16021790555061046c8061006d6000396000f3fe60806040526004361061006d576000357c0100000000000000000000000000000000000000000000000000000000900463ffffffff1680633f4ba83a146100725780635c975abb146100a15780638456cb59146100d05780638da5cb5b146100ff578063f2fde38b14610156575b600080fd5b34801561007e57600080fd5b506100876101a7565b604051808215151515815260200191505060405180910390f35b3480156100ad57600080fd5b506100b661026c565b604051808215151515815260200191505060405180910390f35b3480156100dc57600080fd5b506100e561027f565b604051808215151515815260200191505060405180910390f35b34801561010b57600080fd5b50610114610346565b604051808273ffffffffffffffffffffffffffffffffffffffff1673ffffffffffffffffffffffffffffffffffffffff16815260200191505060405180910390f35b34801561016257600080fd5b506101a56004803603602081101561017957600080fd5b81019080803573ffffffffffffffffffffffffffffffffffffffff16906020019092919050505061036b565b005b60008060009054906101000a900473ffffffffffffffffffffffffffffffffffffffff1673ffffffffffffffffffffffffffffffffffffffff163373ffffffffffffffffffffffffffffffffffffffff1614151561020457600080fd5b600060149054906101000a900460ff16151561021f57600080fd5b60008060146101000a81548160ff0219169083151502179055507f7805862f689e2f13df9f062ff482ad3ad112aca9e0847911ed832e158c525b3360405160405180910390a16001905090565b600060149054906101000a900460ff1681565b60008060009054906101000a900473ffffffffffffffffffffffffffffffffffffffff1673ffffffffffffffffffffffffffffffffffffffff163373ffffffffffffffffffffffffffffffffffffffff161415156102dc57600080fd5b600060149054906101000a900460ff161515156102f857600080fd5b6001600060146101000a81548160ff0219169083151502179055507f6985a02210a168e66602d3235cb6db0e70f92b3ba4d376a33c0f3d9434bff62560405160405180910390a16001905090565b6000809054906101000a900473ffffffffffffffffffffffffffffffffffffffff1681565b6000809054906101000a900473ffffffffffffffffffffffffffffffffffffffff1673ffffffffffffffffffffffffffffffffffffffff163373ffffffffffffffffffffffffffffffffffffffff161415156103c657600080fd5b600073ffffffffffffffffffffffffffffffffffffffff168173ffffffffffffffffffffffffffffffffffffffff1614151561043d57806000806101000a81548173ffffffffffffffffffffffffffffffffffffffff021916908373ffffffffffffffffffffffffffffffffffffffff1602179055505b5056fea165627a7a72305820a31108497b0856a727ab63d8bcdde16277621bec6264e072d7627bc2d6d472e10029",
  "source": "pragma solidity ^0.5.0;\n\n/** @title Ownable. */\ncontract Ownable {\n    address public owner;\n\n    constructor() public {\n        owner = msg.sender;\n    }\n\n    modifier onlyOwner() {\n        require(msg.sender == owner);\n        _;\n    }\n\n    /** @dev Transfer ownership to a different owner.\n      * @param newOwner address of the new owner.\n      */\n    function transferOwnership(address newOwner) public onlyOwner {\n        if (newOwner != address(0)) {\n            owner = newOwner;\n        }\n    }\n}\n\n/** @title Pausable. */\ncontract Pausable is Ownable {\n    event Pause();\n    event Unpause();\n\n    bool public paused = false;\n\n    modifier whenNotPaused() {\n        require(!paused);\n        _;\n    }\n\n    modifier whenPaused {\n        require(paused);\n        _;\n    }\n\n    /** @dev Pauses the contract should that ever be needed.\n      * @return result true or false\n      */\n    function pause() public onlyOwner whenNotPaused returns (bool result) {\n        paused = true;\n        emit Pause();\n        return true;\n    }\n\n    /** @dev Unpauses a previously paused contract.\n      * @return result true or false\n      */\n    function unpause() public onlyOwner whenPaused returns (bool result) {\n        paused = false;\n        emit Unpause();\n        return true;\n    }\n}\n\n/** @title Bribes. */\ncontract Bribes is Pausable {\n\n    /** @dev Event fired when a bribe reported to this contract is successfully stored\n     */\n    event LogBribeReported(uint256 bribeIndex, string ipfsHash);\n\n    /*\n     * Public store of bribes reported to this contract. Using string as data structure\n     * because ipfs hashes don't have a fixed length and are subject to change.\n     */\n    string[] public bribes;\n\n    // A running count of the total amount of bribes paid.\n    uint256 public bribesTotalPaid;\n\n    /** @dev Stores the reported bribe to the contract.\n      * @param ipfsHash Hash of the Ipfs file where details of the bribe are stored.\n      * @param amount Amount given as a bribe.\n      */\n    function reportBribe(string memory ipfsHash, uint256 amount) public {\n        // Ensure that the reward amount is greater than 0\n        require(amount > 0);\n        require(bytes(ipfsHash).length > 0);\n\n        bribes.push(ipfsHash);\n        bribesTotalPaid = bribesTotalPaid + amount;\n        emit LogBribeReported(bribes.length - 1, ipfsHash);\n    }\n\n    /** @dev Gets the ipfsHash for a given bribe\n      * @param bribeId Id of the bribe for which the ipfs hash is being requested\n      * @return ipfsHash ipfsHash for the requested bribe\n      */\n    function bribeDetails(uint32 bribeId) public view returns (string memory ipfsHash) {\n        // Ensure that it's a valid bribe\n        require(bribeId < bribes.length);\n\n        return bribes[bribeId];\n    }\n\n    /** @dev Returns the number of bribes reported to this contract\n      * @return number number of bribes known to this contract\n      */\n    function numberOfBribes() public view returns (uint256 number) {\n        return bribes.length;\n    }\n\n    /** @dev Fallback function - Called if other functions don't match call or\n      *      sent ether without data. Typically, called when invalid data is sent\n      *      Added so ether sent to this contract is reverted if the contract fails\n      *      otherwise, the sender's money is transferred to contract\n      */\n    function() external {\n        revert();\n    }\n}\n",
  "sourcePath": "/Users/krishna/Work/travel-itinerary-bounty-dapp/contracts/Bribes.sol",
  "compiler": {
    "name": "solc",
    "version": "0.5.0+commit.1d4f565a.Emscripten.clang"
  },
  "schemaVersion": "3.0.0",
  "updatedAt": "2019-01-26T04:35:52.020Z",
  "devdoc": {
    "methods": {
      "pause()": {
        "details": "Pauses the contract should that ever be needed.",
        "return": "result true or false"
      },
      "transferOwnership(address)": {
        "details": "Transfer ownership to a different owner.",
        "params": {
          "newOwner": "address of the new owner."
        }
      },
      "unpause()": {
        "details": "Unpauses a previously paused contract.",
        "return": "result true or false"
      }
    },
    "title": "Pausable. "
  },
  "userdoc": {
    "methods": {}
  }
}